:020000022000DC
:1060000000000120A1210300E1210300E32103009E
:10601000E5210300E7210300E9210300000000005F
:10602000000000000000000000000000B920030094
:10603000ED21030000000000D9200300F12103003E
:10604000F3210300F3210300D9F90200F321030037
:10605000F3210300F3210300F3210300F3210300E4
:10606000F3210300F3210300F3210300F3210300D4
:10607000F3210300F3210300F3210300F3210300C4
:10608000F3210300111E0300F3210300F321030099
:10609000F3210300F3210300018E0200F32103002A
:1060A000F3210300F3210300F3210300F321030094
:1060B000F3210300F32103000000000000000000B2
:1060C000F3210300F3210300F3210300F321030074
:1060D000F3210300F3210300F3210300000000007B
:1060E00000000000000000000000000000000000B0
:1060F00000000000000000000000000000000000A0
:10610000000000000000000000000000000000008F
:10611000000000000000000000000000000000007F
:10612000000000000000000000000000000000006F
:10613000000000000000000000000000000000005F
:10614000000000000000000000000000000000004F
:10615000000000000000000000000000000000003F
:10616000000000000000000000000000000000002F
:10617000000000000000000000000000000000001F
:10618000000000000000000000000000000000000F
:1061900000000000000000000000000000000000FF
:1061A00000000000000000000000000000000000EF
:1061B00000000000000000000000000000000000DF
:1061C00000000000000000000000000000000000CF
:1061D00000000000000000000000000000000000BF
:1061E00000000000000000000000000000000000AF
:1061F000000000000000000000000000000000009F
:10620000F1EE103A43F08073E1EE103A704700BFB0
:1062100010B5054C237833B9044B13B10448AFF3E0
:1062200000800123237010BD5038002000000000C2
:106230009472030008B5034B1BB103490348AFF345
:10624000008008BD00000000543800209472030054
:10625000154B002B08BF134B9D46A3F5803A002138
:106260008B460F461348144A121A0DF027FA0F4BAB
:10627000002B00D098470E4B002B00D098470020F1
:10628000002104000D000D48002802D00C48AFF397
:1062900000800DF0A9F9200029000BF0D5FF0DF0CA
:1062A0007DF900BF00000800000001200000000090
:1062B000000000005038002064580020000000005A
:1062C0000000000032DF704741DF704710DF704789
:1062D00011DF704738B5012106200CF051FC012177
:1062E0000820154D0CF04CFC322445F0010501212D
:1062F00006200CF0DDFC002108200CF0D9FC4FF446
:106300003450A847002106200CF0D2FC01210820BF
:106310000CF0CEFC4FF43450A847611E11F0FF047E
:10632000E5D1214606200CF0C3FC21460820BDE83B
:1063300038400CF0BDBC00BF406A030038B50121F5
:1063400006200CF01DFC01210820154D0CF018FC56
:10635000C82445F00105012106200CF0A9FC00210C
:1063600008200CF0A5FC4FF43450A847002106206B
:106370000CF09EFC012108200CF09AFC4FF43450E4
:10638000A847611E11F0FF04E5D1214606200CF05C
:106390008FFC21460820BDE838400CF089BC00BFC6
:1063A000406A030038B5012106200CF0E9FB012109
:1063B0000820144D0CF0E4FB4FF4C87445F00105BF
:1063C000012106200CF074FC002108200CF070FC68
:1063D0004FF47A50A847002106200CF069FC0121F7
:1063E00008200CF065FC4FF47A50A847013CE7D137
:1063F000214606200CF05CFC21460820BDE8384010
:106400000CF056BC406A030038B5012106200CF0A0
:10641000B7FB01210820144D0CF0B2FB4FF48C7433
:1064200045F00105012106200CF042FC0021082066
:106430000CF03EFC45F64010A847002106200CF069
:1064400037FC012108200CF033FC45F64010A8472A
:10645000013CE7D1214606200CF02AFC2146082009
:10646000BDE838400CF024BC406A030038B5012177
:1064700006200CF085FB01210820144D0CF080FB58
:10648000F02445F00105012106200CF011FC00214B
:1064900008200CF00DFC49F64040A84700210620DA
:1064A0000CF006FC012108200CF002FC49F64040EB
:1064B000A847013CE7D1214606200CF0F9FB214614
:1064C0000820BDE838400CF0F3BB00BF406A030071
:1064D00038B5012106200CF053FB01210820144D92
:1064E0000CF04EFBC82445F00105012106200CF0FC
:1064F000DFFB002108200CF0DBFB4FF44850A847DD
:10650000002106200CF0D4FB012108200CF0D0FB68
:106510004FF44850A847013CE7D1214606200CF033
:10652000C7FB21460820BDE838400CF0C1BB00BFC6
:10653000406A0300704700BFF8B52B4C00230122CE
:10654000C4F80031C4F80C31C4F81031226109F0EC
:1065500051FB054604E009F04DFB401B632803D8BE
:10656000D4F81031002BF6D01F4A4FF080430020A2
:106570000121C2F810011A461960D2F80031002B2F
:10658000FBD0194B194E1A4D1A4F002101240F222E
:106590000220C3F8FC4FC3F80825C3F81005C3F860
:1065A0000C15C3F81C65C3F820550825C3F824153D
:1065B0001026C3F83005C3F82C15C3F814550E4D3A
:1065C000C3F818751220C3F83415C3F85425C3F85E
:1065D0000062C3F804550CF06BFB21461320BDE8A4
:1065E000F8400CF065BB00BF0010004026DAB5AAE9
:1065F00025DEB4AA20000302C438002010B5012112
:106600008AB011200CF0BCFA022103200CF0B8FA79
:10661000022108460CF0B4FA012112200CF0B0FA65
:10662000012113200CF0ACFA012106200CF0A8FA8D
:10663000012108200CF0A4FA002104200CF0A0FA9B
:10664000002111200CF034FB002112200CF030FB53
:10665000002113200CF02CFB002106200CF028FB5D
:10666000002108200CF024FB012111200CF020FB5C
:10667000FFF764FE002111200CF01AFBC82009F07E
:10668000C5FA012111200CF013FBFFF757FE002182
:1066900011200CF00DFB01E009F0B8FA03200CF01A
:1066A0001DFB03466420002BF6D04FF080541022CF
:1066B000616E01A809F010FA01A907A809F0F2F922
:1066C0001022216E04A809F007FA04A907A809F00E
:1066D00065FA0146074809F03BFA04A809F030FAC8
:1066E00007A809F02DFA01A809F02AFAFFF724FFFC
:1066F0000AB010BD7838002038B51C4C00250121A7
:106700001220C4F82C550CF0D3FA294613200CF0B3
:10671000CFFA174B4FF4207043F001039847012341
:10672000C4F8005122462360D2F80031002BFBD080
:10673000002001230D49C2F80C019360D1F80C31FF
:10674000002BFBD00123094A0B61D2F81031002B3A
:10675000FBD00021C2F8101112200CF0A9FABDE8FC
:106760003840012113200CF0A3BA00BF00100040F4
:10677000406A0300F8B5214AD2F80500D2F801308A
:10678000D2F80950D2F80D10D2F8114043406B40B6
:106790004B40D2F81510557E63404B40C3F30721A0
:1067A0005940C3F30744614081EA1363DBB29D4261
:1067B00003D0134B00221A77F8BD114C117BD37A0A
:1067C000206043EA0123D2F81300A575D2F80F50D8
:1067D000917AE380537B577A967B61712372D17DE6
:1067E000137E6375C4E9035027716672217509F041
:1067F00001FA0123A0612377F8BD00BFC43800204F
:10680000E43800202DE9F843674D01232B61D5F8CA
:106810001031002BFBD0DFF8B091644CDFF8AC8175
:10682000614F0026CC46C5F810615CF8010FDCF81A
:106830000410DCF80820DCF80C309CF818E00FC4D9
:10684000DCF81000DCF8141003C4022084F800E027
:106850000CF038F904200CF065F907EE900A54F8B2
:10686000130D9FED537A6168A268E368DFF860E179
:10687000F8EE677AC446ACE80F0067EE877A238AA1
:10688000ACF80030FCEEE77A4A494B4AA07C0C7821
:106890008CF8020017EE903A9BB2AEFB031E4FEA53
:1068A0005E1E31463046138088F814E088F81340A5
:1068B000FFF70CFD0A2009F0A9F9324601213F48F3
:1068C00002F0A6F83E493D4802F014FA31463B4832
:1068D00002F024FA3B4800F01FFD0621394800F081
:1068E000EFFC384800F0D4FC16224146354800F051
:1068F000FBFC3448314600F031FD2022114631487E
:1069000000F028FD2F48314600F022FD0121122021
:106910000CF0CEF9314613200CF0CAF93146294863
:1069200000F07CFD642009F071F9264800F0DCFDE0
:10693000314612200CF0BCF9012113200CF0B8F9FB
:10694000FFF7C6FC0A2009F061F9FFF7F5FD3146B3
:1069500012200CF0ADF9012113200CF0A9F93146F9
:10696000202248460CF0AAFE02220123C5F8049515
:10697000C5F83025C5F80061C5F80C616B6009F0F9
:1069800039F9044604E009F035F9001B092803D859
:10699000D7F80031002BF6D0034BD3F800210AB111
:1069A00001229A60BDE8F883001000408C38002076
:1069B00000A08C4006360020043600201C39002040
:1069C000086A0300A03B0020C4380020A83800203B
:1069D0001F85EB5138B5364B364D37490022C3F889
:1069E0000C21D3F848352A785B42032A0B7009D969
:1069F0006B78412B05F1010132D0192A02D16B7855
:106A0000542B37D02A4C2B48202200210CF056FE64
:106A10000223C4F804550021C4F8303512200CF0CC
:106A200047F9012113200CF043F900230122C4F897
:106A30000031C4F80C31626009F0DCF8054604E06E
:106A400009F0D8F8401B092803D8D4F80031002BEE
:106A5000F6D0174BD3F800210AB101229A6038BD55
:106A60004B78432BC9D1EB784B2BC6D12B792C2BF0
:106A7000C3D1C7E74B78452BC4D1104B1A784C2AA9
:106A8000C0D15B78452BBDD1FFF774FE0C4B1B7F4B
:106A9000002BB7D0FFF71EFC11200CF01FF9B0FA45
:106AA00080F1490911200CF003F9FFF7ABFEA9E7CB
:106AB00000100040C438002006360020C7380020EF
:106AC000E43800204E4A01232DE9F04106461361C7
:106AD000D2F81031002BFBD00024C2F81041304610
:106AE0000DF0CFFC474FC5B2384605F1010800F85C
:106AF000018B2A4631460CF0B9FD002D7AD06B1E71
:106B0000062B79D9A9080139CAB2311D234601EBF8
:106B10008201344654F8042B8C4283EA0203F9D1F3
:106B2000C3F30722C3F307415A404A4082EA136382
:106B300035F0FC01DBB205F0FC022BD0511CB05C3F
:106B4000C9B28D4283EA000324D9705C911CC9B29A
:106B500043408D42DBB21DD9705CD11CC9B28D425D
:106B600083EA000316D9705C111DC9B28D4283EA15
:106B700000030FD9705C511DC9B28D4283EA000336
:106B800008D90632715CD2B2954283EA010301D979
:106B9000B25C53401A4C07F80830C4F80475FFF78C
:106BA000ABFD022009F032F82022002115480CF03C
:106BB00085FD002302210122C4F80475C4F83015B4
:106BC000C4F80031C4F80C31626009F013F80546CE
:106BD00004E009F00FF8401B092803D8D4F800316D
:106BE000002BF6D0064BD3F800210AB101229A609F
:106BF000BDE8F0812B46CDE7234622469EE700BF45
:106C000000100040C43800202DE9F84F754C764D37
:106C1000074604F1010904F1020A4FF0030838465F
:106C2000FFF750FF08F0E6FF06460BE020220021A8
:106C300020460CF043FD0123C5F80445AB6001205C
:106C400008F0E4FF08F0D6FF801B312800F2B68080
:106C5000D5F80C31002BF2D00023C5F80C31237885
:106C60005A1F192AE2D89A1E591E062A14F803C080
:106C7000C9B240F2B1808B08012BD4F8012021D099
:106C8000D4F80500022B82EA00021BD0D4F80900D8
:106C9000032B82EA000215D0D4F80D00042B82EAFF
:106CA00000020FD0D4F81100052B82EA000209D0AF
:106CB000062BD4F8150018BFD4F8193082EA000268
:106CC00018BF5A4082EA122383EA1243DBB231F042
:106CD000FC0083EA126301F0FC023DD004EB020EDB
:106CE000501C9EF801E0C0B2814283EA0E0333D902
:106CF000204402324078D2B2914283EA00032BD979
:106D000004EB020E501C9EF801E0C0B2814283EAFF
:106D10000E0321D9204402F1020B90F801E05FFA42
:106D20008BF083EA0E038142DBB215D9204402F1D5
:106D3000030B90F801E05FFA8BF0814283EA0E03C7
:106D40000AD9204404324078D2B2914283EA000347
:106D500002D92244527853409C457FF467AF99F89A
:106D60000030412B7FF462AF9AF80030432B7FF460
:106D70005DAF1E4803784B2B7FF458AF10F8013FEE
:106D80002C2B7FF453AF2022002104380CF096FC0A
:106D9000154B0125C3F8044529469D6011200BF0D1
:106DA00087FFFFF795FB322008F030FFFFF790FBDD
:106DB000112000210BF07CFF28460BE0B8F1010FF9
:106DC00007D0142008F1FF3808F020FF5FFA88F898
:106DD00025E70020BDE8F88F6278A37853400222AF
:106DE0008EE700BFC438002000100040C7380020E4
:106DF00010B5002112200BF05BFF002113200BF0D7
:106E000057FF264A01231361D2F81031002BFBD023
:106E10000024C2F8FC4F012111200BF049FFFFF7BD
:106E20008DFA214611200BF043FFC82008F0EEFE3A
:106E3000012111200BF03CFFFFF780FA21461120C1
:106E40000BF036FFC82008F0E1FE012111200BF005
:106E50002FFFFFF773FA214611200BF029FF01E005
:106E600008F0D4FE03200BF039FF03466420002B0A
:106E7000F6D0642008F0CAFE002111200BF018FFA4
:106E80004FF0A043064AC3F80C27642008F0BEFE6A
:106E90004FF080430122C3F8002510BD00100040D0
:106EA0000C00030038B503200BF018FF28B10220B6
:106EB0000BF014FF98B3002038BD044601211120C7
:106EC0000BF0F6FEFFF706FA214611200BF0F0FE5C
:106ED0003D48FFF799FE03200BF000FFB0B90A24EC
:106EE000642008F093FE03200BF0F8FE631E10B937
:106EF00013F0FF04F4D103200BF0F0FE0446002849
:106F0000DCD003200BF0EAFE0028E8D0112000219D
:106F10000BF0CEFE02200BF0E1FE0028CBD10121C8
:106F200011200BF0C5FE012106200BF029FE0121E6
:106F30000820264D0BF024FE642445F001050121B4
:106F400006200BF0B5FE002108200BF0B1FE4FF437
:106F50003450A847002106200BF0AAFE012108208A
:106F60000BF0A6FE013C4FF43450A84714F0FF0488
:106F7000E5D1214606200BF09BFE214608200BF0B0
:106F800097FE112021460BF093FE1148FFF73CFEBF
:106F900002200BF0A3FE0346642073B90134E4B26F
:106FA00008F034FE1E2CF3D9FFF722FF02200BF06D
:106FB00095FE03466420002BF0D0002111200BF039
:106FC00077FE002038BD00BF146A0300406A03004A
:106FD0001C6A03002DE98848FFF710FB6848694DDB
:106FE000694EDFF8B8A1DFF8B8919FED688A684C68
:106FF000022100F003F908F0FDFD4FF001082860C0
:1070000073E0D4F80C310BB1FFF7E4FC2B6803F507
:107010007A7708F0EFFD87421CD208F0EBFD0346BB
:1070200002202B600BF04EFD04200BF07BFD07EEE1
:10703000900AF8EE677A67EE887AFCEEE77A17EE48
:10704000903A9BB2B3F5486FAAF800306FD3002393
:10705000C9F80030F1EE103A23F09F03E1EE103A48
:10706000F1EE103ADFF83CB10120FFF72BF94FF4B5
:1070700080074021CBF8841111200121CBF88071C9
:107080000BF016FE434B4FF4486043F00101884774
:10709000002111200BF00CFE0A2008F0B7FDFFF7CD
:1070A00013F9FFF711F9FFF70FF9FFF70DF9FFF7E4
:1070B0000BF9FFF709F9FFF707F9FFF705F9FFF7F4
:1070C00003F9FFF701F9FFF7FFF8FFF7FDF8FFF706
:1070D000FBF8FFF7F9F8FFF7F7F8FFF7F5F8FFF718
:1070E000F3F8FFF7F1F8CBF88071FFF7DBFE3778A4
:1070F000002F86D1394612200BF0DAFD0121132032
:107100000BF0D6FD244BC4F800710222C4F80C71B8
:10711000C4F83025C4F80435C4F80480D4F800312C
:10712000002BFBD0C4F8088086F8008069E708F0DF
:1071300061FDD9F8002042F20F71821A8A42074697
:1071400088D9FFF72FF9642008F060FDFFF75CF99C
:10715000642008F05BFDFFF789F9C82008F056FDB0
:10716000FFF720F9642008F051FDFFF74DF9642086
:1071700008F04CFDFFF77AF9C9F800706AE700BF24
:1071800004390020C03800208438002000A08C4042
:1071900000100040406A0300C4380020043600207C
:1071A0008838002000E100E070B50B4E0B4D0C4C10
:1071B0000C49304608F05CFC0B4A294630460CF07E
:1071C000B5F90A49204608F053FC29462046064AEC
:1071D000BDE870400CF0AAB97838002041FB0200ED
:1071E0006C380020246A030000360020306A030057
:1071F00032DF704733DF704712DF704710B5022966
:1072000082B006D003290C461FD001290FD002B04E
:1072100010BD0DF10700FFF7EFFF9DF807000128F3
:1072200022D04FF080430122DA6702B010BD0DF189
:107230000700FFF7E1FF9DF80730012B18D04FF052
:107240008043C3F8004502B010BD0DF10700FFF701
:10725000D3FF9DF80730012B05D04FF0804301226A
:107260009A6702B010BD0020FFF7C2FF02B010BD48
:10727000FFF7C0FFCBE700BF72DF704773DF7047D7
:1072800074DF704777DF70470022C2770270704763
:1072900010B50446094801F079FDE37F1C2B01DDA0
:1072A000002010BDE2180221E1540A2390705370AF
:1072B000E37F0333E377012010BD00BF1C390020BA
:1072C000C27F1C2A01DD0020704710B403469C18C1
:1072D000022098540120A1706070DA7F0332DA77BF
:1072E0005DF8044B704700BF70B5C37F0446D018EB
:1072F0001D2801DD002070BDE018561CE654FF2358
:107300004370023015460CF0B1F9E27F02351544A6
:10731000E577012070BD00BF0023C377037070477D
:1073200010B4084A084C094902620022C0E90A4127
:10733000C0E90C225DF8044B0270C277426282639E
:10734000704700BFFF0101002000F40020001E0074
:10735000C1857047018581854285704780F822107C
:10736000704700BFF0B5154605EB8503274A89B085
:10737000044603EB830300200E469B001168029035
:10738000CDE90460ADF8143094F821308DF8083060
:10739000CB07CDE90600039009D41D491D4BC87FDA
:1073A000E77F988101201C6099609F8010601949D7
:1073B00002AA04F12000FFF75FFF10B1002009B01E
:1073C000F0BD94F820101448019101F0DFFC019900
:1073D00002460120FFF756FF0028EFD194F8200065
:1073E0000121FFF74BFF0028E8D10B4801F018FD01
:1073F000628EA68595424FF0010094BF521B921AEF
:10740000628684F8230009B0F0BD00BF083900206F
:10741000DC3B00200C3900201C390020F0B5002393
:1074200061F30F032D4D044661F31F4389B00363DD
:10743000FA21284601F0AEFCE68D2949278D08681F
:10744000049706EB860303EB830300229B0005925F
:10745000ADF8143094F8213002928DF80830C3074B
:10746000CDE9062203920BD41E4BE27F95F8DF0292
:107470009A8005F5307501221C609D6098810A6034
:10748000184902AA04F12000FFF7F6FE10B100200F
:1074900009B0F0BD94F820101048019101F076FC7D
:1074A000019902460120FFF7EDFE0028EFD194F884
:1074B00020000121FFF7E2FE0028E8D1074801F093
:1074C000AFFC638EA7859E424FF0010094BF9B1BCB
:1074D000DB1A638684F8230009B0F0BD1C39002054
:1074E000083900200C39002010B5044690F820001F
:1074F000FFF7C6FE08B1002010BD84F82300024843
:1075000001F0A2FC012010BD1C39002030B50B8811
:107510008D88112B85B0044605D0262B33D0102B37
:1075200025D005B030BD436AEB40DB07F9D52E48C6
:1075300000F042FD0028F4D1636A94F82310012280
:1075400002FA05F523EA050363620029E9D194F8FC
:107550002230002BE5D0238E23486386FA2101F0E8
:1075600019FCE28D218D2046FFF7FCFED9E7CB7B8D
:10757000012BD6D1426A03FA05F515430023456273
:1075800080F82330CDE70B7A012BCAD1002380F895
:1075900023304FF4FA71144801F0FCFB238E5BB1E9
:1075A000658E95B1A36B0BB19847658E618D2A46A8
:1075B0002046FFF7D7FEB4E7A36B03B19847618D70
:1075C00000222046FFF7CEFEABE7074801F03CFC67
:1075D000626B002AA5D0009503AB29462846039587
:1075E0000BF024F99DE700BF1C39002075DF7047C0
:1075F00010B44FF010144FF448010022C0E90041CC
:10760000C0E902225DF8044B704700BF014800F05A
:10761000F9BA00BF503C0020F8B500250D4F2E46AA
:1076200001E0142D14D0A9B2384601F0E1FB013578
:1076300004460028F5D000F0A9F90028F1D0204632
:1076400000F0AEF9022804BF0136F6B2142DEAD1DB
:107650003046F8BD1C39002070B58E881B480C469A
:1076600094B0314601F0C4FB23881A2B05D01F2BA0
:107670001CD0102B0FD014B070BD054600F088F957
:107680000028F8D0284600F085F90028F3D12846D4
:1076900000F0D0F9EFE7694600F0B4F90028EAD02D
:1076A0006A4631460A4800F0DBFEE4E754F8080F6A
:1076B00061686B4603C33046BDF80030ADF8023058
:1076C0006946FFF793FF14B070BD00BF1C3900205E
:1076D0003C39002051F8322F026049684160704700
:1076E000A1DF7047A3DF7047A4DF704700238383C7
:1076F000704700BF006A00F0E3B800BF808B70479E
:107700002DE9F0410B88CE88382B86B00C46054613
:1077100006D0392B66D0362B43D006B0BDE8F081B9
:1077200000F12407002E36D10A8A3846314601F08E
:107730001FFC94F80C80B8F1010F2CD0B8F1040FA5
:10774000EBD1286A00F0BCF801465C4801F050FB20
:1077500000F028F92A8E053883B2934228BF1346D9
:10776000002B00F09A80218AE289286AAC8B8DF880
:107770000D600A44E96A05918DF80C80ADF812306D
:10778000ADF81020ADF80E4000F09AF803A9FFF70D
:10779000A9FF0028C1D0384601F002FC06B0BDE8C0
:1077A000F081006A00F08CF80146444801F020FBAB
:1077B00000F0F8F807466EBB05F12406E289304672
:1077C00004F1100101F0D4FB2B8E2BB1F81EE389DC
:1077D00080B20138834255DA304601F0E1FB06B051
:1077E000BDE8F0810B7B012B1AD0022B95D1836B66
:1077F000002B92D090F83C208F8892071FD401F183
:107800001006E28931462846984761893846FFF7D5
:107810006BFF82E705F12407384601F0C1FBBDE7A5
:10782000436B002B3FF479AF90F83C20D10717D47D
:1078300004F11006E2893146284698476DE7C98968
:10784000039004F1100603201A46009003AB304663
:10785000CDE904610AF0EAFF0028D6D1AB6BD0E78E
:10786000E189039004F1100603201A46009003AB4F
:107870003046CDE904610AF0D9FF00287FF44DAF0E
:107880006B6BD7E7286A00F01BF86A8EA98B92B25F
:10789000FFF726FF00289FD13FE7AA8B286AADF8A3
:1078A0000E2040F20511ADF80C10CDE9043300F0C4
:1078B00007F803A9FFF716FF6DE700BF1C3900208A
:1078C000808870478FDF704790DF7047B1DF704767
:1078D000B5DF704710B5074B03600446806A09F0B6
:1078E00005F8E06A09F002F8206B08B108F0FEFF25
:1078F000204610BD506A030010B5094B03600446D2
:10790000806A08F0F3FFE06A08F0F0FF206B08B12E
:1079100008F0ECFF20460AF0D1FC204610BD00BF65
:10792000506A030070B504460D4692E80300A58036
:107930000E0CA061A183144DA67717201B21568938
:107940002560E0809589D089E181D1796581012226
:1079500022752274A08161741846194626819DF80B
:10796000105008F025FA2946A062284608F020FAAF
:107970004FF4885100234FF6FF72E182E062628289
:1079800023636375204670BD506A0300007D704715
:10799000407D7047C07D113818BF0120704700BF7F
:1079A000407C7047C0887047008970474B7D10B499
:1079B0004BB11F310C688A888B79046082805DF836
:1079C000044B837170471831F4E700BF818800F1E0
:1079D0001F02407C01F02ABB38B50A4605460C461A
:1079E0008188407C01F00EFB2146012051F8483F80
:1079F000C5F81F308B888A7985F82520A5F82330B3
:107A0000687538BD38B50A4604460D4600F11801C0
:107A1000407C01F041FB607550B1294651F8483F68
:107A2000C4F81F308B888A7984F82520A4F8233085
:107A300038BD00BF10B5447D24B100F11F01407C6A
:107A400001F008FB204610BD70B50B88113B82B0D9
:107A50000C460546462B2BD8DFE803F0383B2A2A94
:107A60002A2A2A2A2A422A2A2A2A2A2A50585E649C
:107A70002A2A2A2A2A2A2A2A2A2A2A2A2A2A2A2A66
:107A80002A2A2A2A2A672A942A2A2A2A2A2A2A2AAF
:107A90002A2A2A2A2A2A2A2A2A2A2A2A2A246A2A0C
:107AA000752C84000023A8881A461946FFF70EFF9C
:107AB00002B070BD8B79002BFAD1006BAB7500283A
:107AC000F6D01A46194608F0A5F9F1E70023037528
:107AD000EEE74B8903818B894381CB898381E7E77B
:107AE0000B7AC375112BE3D0818800F11F02407C13
:107AF00001F08AFB03460028DAD1D4E7002301A96C
:107B00008088ADF80430FFF7DDFED1E70B7A002B5B
:107B1000CED14B7A0374CBE7002211468088FFF761
:107B2000D3FEC5E70B89C381C2E74B89C380BFE79A
:107B3000006B0123AB750028BAD000231A46194602
:107B400008F068F9B4E7417C164801F049F9E38888
:107B50000146994228BF194689B2A888E980FFF7F3
:107B6000B7FEA5E78B79002BA2D0002600231A468A
:107B70001946A86A08F04EF90136A279F3B29A4282
:107B8000F4D895E78B7A002B92D0002600231A4672
:107B90001946E86A08F03EF90136A27AF3B29A4231
:107BA000F4D885E71C39002070B58AB086880B466A
:107BB00006A84FF42851144605934FF6FF7500F0C0
:107BC000F1FC0120CDE90105059B0094314606AA90
:107BD000044800F06FF8044606A800F0DBFC2046DD
:107BE0000AB070BDA039002010B50446043001F081
:107BF0005BF9034B236000232375204610BD00BFB3
:107C00000100FFFF017D01B1704710B5044604304B
:107C100001F054F90123237510BD00BF007D7047AA
:107C20000B88322B10B504D0332B17D0302B08D053
:107C300010BDCB88DBB1041D2046BDE8104001F02B
:107C4000AFB9CB88041D002BF6D14B89002BF3D0A4
:107C50000A3120460A2201F08BF9EDE7CB88002B90
:107C6000E9D14A89002AE6D002EB420204E04A89BF
:107C7000002AE0D002EB82025200041D023292B2CE
:107C80000A31204601F074F9D6E700BFA0DF704743
:107C900010B5044600F5F87001F006F92046F82208
:107CA00000210BF00BFDF822A01800210BF006FDBF
:107CB000204610BD2DE9F04782B00546BDF82C6086
:107CC000BDF830402048ADF80460BDF828A0ADF8FC
:107CD0000640904699460F4601F08AF805F5F8757A
:107CE000064603E0FFF760FE07F090FF284601F02C
:107CF0003DF904463046002CF4D10121284601F01C
:107D0000DDF852464946284601F0F4F808F104012E
:107D1000384601AAFFF7BAFF30B1284601F0D8F87B
:107D2000204602B0BDE8F0874FF4FA71284601F012
:107D3000E7F820EAE074284601F0CAF8A4B2204629
:107D400002B0BDE8F08700BF1C3900202DE9F04FDC
:107D50008F880D8885B0884604463946864801F0EC
:107D600047F8A5F11003012B814640F2908094F86A
:107D700054203AB3002633461633502D54F823A02E
:107D800069D0512D1AD198F80630B8F808B0022BF6
:107D900053D0BBF1000F11D051466846FFF79AFC53
:107DA000BDF800305B4559D0514602A8FFF792FC60
:107DB000BDF80C305B4551D094F854200136F3B235
:107DC0009342D9D394F84C31002B00F0D18004F5C4
:107DD000A679002604E094F84C310136B34220DD48
:107DE00059F8040FFFF786FCB842F4D1382D03D0C0
:107DF000392D01D0362DEED1B8F80AA0BAF1000F16
:107E0000E9D0D9F800B05846FFF778FC5045E2D1E8
:107E100058464146FFF774FC94F84C310136B342A2
:107E2000DEDC112D55D0352D04D1B8F80A30002BE9
:107E300040F08F8005B0BDE8F08F98F80E30062B2B
:107E4000A7D1DAF800305046DB68414698474846EB
:107E5000FFF7A0FDB0E7B8F806B09AE7DAF800300F
:107E60005046DB68414698474846FFF793FD002897
:107E7000A2D0502DA0D1514602A8FFF72BFCBDF88F
:107E80000C305B4598D14846FFF7A0FD94E7237876
:107E9000002B3FF46CAF0026112D33460CD004EBC1
:107EA00083033946586803685B689847013622782F
:107EB000F3B29A42F3D85AE704EB83033946586881
:107EC00003681B68984701362278F3B29A42F3D8C8
:107ED0004DE7D3B10026334605E094F84C21013636
:107EE000F3B29A4211D904EB8305D5F85001FFF79C
:107EF00001FCB842F1D1D5F85001FFF7F7FB01368C
:107F000094F84C21F3B29A42EDD894F8F820002A64
:107F100090D000252B4604EB8303D3F8FC00838824
:107F2000BB420AD00135EBB2934283D204EB830308
:107F3000D3F8FC008388BB42F4D103681B689847E0
:107F4000013594F8F820EBB29342E4D305B0BDE8D4
:107F5000F08F04F5F874B8F80C20204608F11001F1
:107F600001F006F8204605B0BDE8F04F01F018B862
:107F7000112D7FF458AFC8E71C39002078DF704717
:107F80007ADF7047054A034692E80300002283E83F
:107F90000300C3E902221846704700BF586A030075
:107FA00008B5FFF7EDFF08B1002008BDFFF7E6FFB9
:107FB000B0FA80F0400908BDF8B500250D4F2E46F7
:107FC00001E0142D14D0A9B2384600F011FF01359C
:107FD00004460028F5D0FFF7D9FC0028F1D0204650
:107FE000FFF7DEFC012804BF0136F6B2142DEAD1FA
:107FF0003046F8BD1C390020704700BF8ADF70474B
:1080000030B40D4CC4621F25002250248584A02565
:10801000C0E91122C0E90F22A0F84650A0F848405C
:10802000006230BC8262028680F838204263C264FB
:10803000A0F85020704700BF000180002DE9F04FEC
:1080400010468DB016460C4600F0BAFAC5B2102D97
:108050004FD0B66807220623A16994F81C900191BD
:108060008DF80D208DF80C30ED080DF10C080DF198
:108070000E0A0027B9F1010F0A97CDE90477CDE97F
:108080000677CDE90877CDF82B700ED998F8000067
:1080900001994B464A7882420FD00A78D443234450
:1080A000013213F0FF031144F4D108F10108C24575
:1080B000E0D100200DB0BDE8F08F11F8024B013C7B
:1080C000E4B2224604A80BF0D1FA0DF1100B1CB952
:1080D000EBE714F0FF04E8D058462A4631460BF08F
:1080E000B7FA641BAB440028F3D101200DB0BDE802
:1080F000F08F043603220223AEE700BF2DE9F043E0
:108100000B888E88103B87B00D4604460D2B2CD86B
:10811000DFE803F077072B2B2B2B2B2B2B2B2B8420
:108120002B2E836AF340DB071FD55648FFF774FAFE
:10813000D8B9A36A94F82C20012505FA06F623EA9B
:108140000606A6628AB994F82D3073B11F23246203
:10815000A38404F1200104F14400FFF74FFF20B98C
:10816000494800F05DFE84F82C5007B0BDE8F0836C
:1081700090F92E2091F91B309A423ADC90F8383071
:1081800001F108080BB3DFF80491002602E0D6B233
:10819000B34218D9636BCDF8089003EB061302AA1B
:1081A00059680391D3E90273414620460593049729
:1081B000FFF744FF074602A800F0ECF994F83830C6
:1081C000721C002FE3D09E4213D094F82F30002B66
:1081D00049D095F82430012B0BD9296A4A78FF2A17
:1081E00030D00A78D0430344013213F0FF03114426
:1081F000F4D104F120010020FFF700FF07B0BDE833
:10820000F083CB7B022BB0D1836A012202FA06F6FF
:1082100033430022836280F82C20A6E70B7A012BDF
:10822000A3D1002580F82C50174800F00DFE226CD9
:10823000002A9AD0009502AB2946284602950AF0FA
:10824000F5FA92E711F8025B6A1ED2B2022A28BF41
:10825000022202A80BF00AFA012DCAD0228EBDF824
:1082600008309A42C5D1E26B002A3FF47EAF012369
:108270000093404602AB2421CDF808800AF0D6FADC
:1082800073E700BF2C3900201C390020686A030006
:1082900046DF70477FDF704780DF704785DF7047BC
:1082A00086DF704738B51C460D4603461146284602
:1082B0002246984734B1014600222846BDE838409E
:1082C000FFF7EABF38BD00BF044A02600321002265
:1082D000C0E9162201710266704700BF3107100322
:1082E000012070470B7803F0FE03042B01D000201F
:1082F000704770B515468CB00C462022002104A8AA
:108300000BF0DCF928686968AA68EB686D460FC550
:108310009DF800109DF80F209DF801609DF80E500B
:108320009DF802008DF80F1023469DF80D108DF872
:1083300000209DF803208DF80E608DF801509DF807
:108340000C609DF804508DF80D008DF802109DF81A
:108350000B009DF805108DF80C209DF80A208DF873
:1083600003608DF80B508DF804008DF805208DF812
:108370000A109DF8061033F8042FADF810209B78F2
:108380009DF809209DF81D009DF810609DF81F5074
:108390008DF809108DF806209DF811109DF81E200B
:1083A0008DF81D309DF807308DF812008DF81F6094
:1083B0009DF808009DF813608DF810508DF81E1080
:1083C0009DF81C509DF814108DF811208DF8083080
:1083D0009DF81B209DF81A308DF807008DF81C6061
:1083E0008DF813509DF815608DF81B108DF8142032
:1083F00068468DF815309DF819109DF817209DF8E6
:1084000018309DF816508DF818208DF816108DF83C
:1084100017308DF81A608DF81950FFF739FF627820
:108420009DF82F309DF82E009DF82D108DF821001D
:108430009A428DF8221004F1010404D0012080F04A
:1084400001000CB070BD6278C3B29A4204F101041D
:10845000F4D16278CBB29A42F0D10020EFE700BFAE
:1084600008B5137CDB0758BF1C32084602F1120125
:10847000FFF714FFB0FA80F0400908BDF0B58E8810
:108480000C4699B005463146404800F0B1FC2388BF
:10849000133B0746072B1AD8DFE803F027424E1993
:1084A0001919041B237A33B9637B9B075ED53846C1
:1084B000A91DFFF791FAEA6D4AB1247A022300213F
:1084C0000093084604ABCDE904640AF0AFF919B093
:1084D000F0BD2A6E002AFAD001230021009308463D
:1084E00004AB04960AF0A2F9F1E7AB1D002405F1F4
:1084F0002202049305F13E03CDE90823CDE90544AA
:10850000CDE90A440794FFF74BFA01280CBF2A462D
:1085100022462146304604ABFFF7BCFE19B0F0BD41
:1085200004A9FFF76FFA0346D0B104A9304600232F
:1085300012AAFFF7B5FECAE7AB6D002BC7D0A57B2B
:108540000493042304F1080005F001050093104A88
:10855000059604AB0621CDE906050AF067F9B6E7F2
:1085600030461A461946FFF79BFEB0E702A8394687
:10857000FFF71CFA0298BDF80C209DF80E3085F824
:108580005430C5F84E00A5F8522090E71C39002061
:10859000A5820200704700BF10B5044609F08EFEA8
:1085A000204610BD10B4054C8180002201210460DA
:1085B000C0E902225DF8044B81717047686A0300CC
:1085C0008379012B0AD0826832B9C26822B9012BA3
:1085D0008CBF80200020704780207047102070479B
:1085E0004BDF704710DF70477CDF704760DF7047FC
:1085F00069DF704761DF704766DF704767DF70478C
:10860000704700BF13200AF083BB00BF30B5124C87
:10861000124D83B0D4F86C034FF0FF3107F0EAFF3E
:108620000028F7D06DB101A8FFF7DAFF0528F1D0D7
:108630000028F8D10198831E012BF4D806F08CFE97
:10864000F1E701A8FFF7CCFF0528E3D001A8FFF769
:10865000C7FF0528F5D1DDE71C39002059F30200DA
:108660002DE9F04F2DED028B4FF4FA7089B007F031
:10867000DBFAB04E00F1080308EE103A054606F5A5
:10868000717706F5217AD6F868034FF0FF3107F0CD
:10869000B1FF0028F7D04FF4FA730DF11601284608
:1086A000ADF81630FFF7A6FF10B10528F3D1EAE7C1
:1086B000B5F80490B9F1130F00F2348109F1DE032B
:1086C00056F823403CB129462046FFF7BDF99A48A9
:1086D0002946FFF7D3FE2B88013B1B2B57D8DFE839
:1086E00013F0110156005600560056005600560071
:1086F00056005600560056005600560056005600CA
:10870000B1001C0056005600560056005600560098
:1087100056005600560056009F00DFF830824FF09A
:10872000000B58F8040F30B1FFF730F918B10BF116
:10873000010B5FFA8BFBB845F3D1BBF1000F06D1FB
:1087400096F874331BB1594613200AF0B1FA20464B
:10875000FFF726F9012800F0E780F26962B10223F1
:10876000002195F808C00093084606ABCDF8189094
:10877000CDF81CC00AF05AF809F1DE0856F82800B6
:1087800010B103685B689847002346F828302946F3
:108790005046FEF7BBFE69482946FFF7AFFCB6F826
:1087A00076334B452B8800F0B280102B1ED02CB3B3
:1087B0002046FFF7F5F8012803D15E482946FFF768
:1087C0001BFC2046FFF7ECF802281BD05C48FFF7A3
:1087D00025FA00BB5B482946FFF7B8FAD6F8CC3338
:1087E000002B3FF458AF2846984754E7EB7B012B0A
:1087F000DDD1AB88A6F87633002CD9D14D48294677
:10880000FFF7FAFB50482946FEF726FF4C48FFF7D2
:1088100005FA0028DED04A482946FFF701FAD9E7D1
:10882000D6F8C823002AB2D00223002195F908C047
:108830000093084606ABCDF81890CDF81CC009F09F
:10884000F5FFA4E74FF00008D6F87003CDF80080DC
:108850004346424603213D4C09F046FA54F8040FC2
:1088600030B1FFF793F818B108F101085FFA88F802
:10887000BC42F3D196F874336BB1B8F1000118BF64
:10888000012113200AF014FA96F874331BB1012168
:1088900013200AF00DFA09F1DE0856F8280028B175
:1088A00003685B689847002346F82830EB7B012B70
:1088B0000BBF96F8563396F85C3396F8574396F804
:1088C0005D430393342009F0F7FC039B009418EEFA
:1088D000102A04464946FFF725F8204646F8284066
:1088E000FFF75EF8012833D0B269002A3FF44FAF9A
:1088F000012300210093084606ABCDF8189009F03B
:1089000095FF44E700214846FFF776FE3FE7102B2E
:108910003FF46CAF112B7FF44AAF4FF6FF73A6F80C
:10892000763344E70446D6E6F268002A7FF417AFB0
:1089300022E700BF1C3900203C390020FC3B00200E
:10894000503C0020A03900202C390020903C002011
:10895000B268002A3FF41BAF0021009006AB084626
:10896000CDF8189009F062FF11E700BF38B5044652
:10897000FFF708FB04F11000FEF73AFE04F12000B7
:10898000FFF7A2FC04F18400FFF782F904F52170DF
:10899000FEF7C6FC04F53070FEF776FC04F538707F
:1089A000FFF72EFB04F54D70FFF71EF91548164929
:1089B000164AC4F858234FF440630025C4F84C33DA
:1089C00040F20113C4E9D401A4F85C33A4F85E5367
:1089D00004F55E70294650220AF070FE01224FF61F
:1089E000FF73A4F8605384F86253C4E9DA55C4E90C
:1089F000F255C4F8705384F87423A4F876332046F3
:108A000038BD00BF010A1700030001011700030071
:108A1000F0B5AE4E80F860138DB0336980F86123F5
:108A20000446AB49039303A8FFF7DCFD18B100250A
:108A300028460DB0F0BD0990CDE90A00A54A94F88A
:108A40005133049209A901208DF82430FFF7D0FD9D
:108A50000028ECD194F861330B90CDE90900181E81
:108A600018BF012094F860538DF82700049A8DF800
:108A7000263009A940208DF82550FFF7B9FD0028C0
:108A8000D5D194F850130990034661F30003CDE962
:108A90000A00049A8DF8243009A9A020FFF7A8FD48
:108AA0000028C4D1D4F84C330A900B90049A09934F
:108AB00009A9A120FFF79CFD0028B8D194F86033E4
:108AC000002B40F0B48094F86133002B47D0002392
:108AD000B4F85873049A0993022509A92320CDE913
:108AE0000A338DF82450ADF82670FFF781FD002879
:108AF0009DD1CDE9090094F86173B4F85A330B9015
:108B0000049A8DF8245009A920208DF82670ADF81C
:108B10002830FFF76DFD002889D10990CDE90A00C2
:108B200094F85C33049A8DF8245009A922208DF81A
:108B30002630FFF75DFD00287FF479AFCDE909000D
:108B400094F85D330B90049A8DF8245009A92120E4
:108B50008DF82630FFF74CFD00287FF468AF04A89D
:108B6000FFF744FD00287FF462AFCDE9070040F035
:108B7000010307A902208DF81C30FFF73FFD0028F4
:108B80007FF455AF2046FFF70BFA054600283FF467
:108B90004EAF04F12000FFF7A3FB337D4E498DF863
:108BA0000830102202A8FFF71FFD00287FF43FAF16
:108BB00094F86133002B40F08480032200210120CF
:108BC00007F0B4F8C4F8680300283FF430AF05ABF1
:108BD0000326CDE900634149414800234FF4A062D8
:108BE00008F022F832460021012007F09FF8C4F86F
:108BF0006C0300283FF41BAF06ABCDE90063394995
:108C000039480023C82208F00FF8384B4FF480028F
:108C10001A60374B00930023184601224FF48071ED
:108C200009F00CF8C4F8700300F0C6F900E70990E9
:108C3000CDE90A00B4F85233049AADF82630012584
:108C400009A923208DF82450FFF7D2FC00287FF4D7
:108C5000EEAECDE9090094F86073B4F854330B908C
:108C6000049A8DF8245009A920208DF82670ADF8BB
:108C70002830FFF7BDFC00287FF4D9AE0990CDE97C
:108C80000A0094F85633049A8DF8245009A922203A
:108C90008DF82630FFF7ACFC00287FF4C8AECDE994
:108CA000090094F857330B90049A8DF8245009A9C1
:108CB00021208DF82630FFF79BFC00283FF403AFFE
:108CC000B5E604F11000FEF7A1FC76E7C86A0300E0
:108CD0000186020000360020AC6A0300C06A03006F
:108CE00061860200C46A03000D86020000E100E014
:108CF0000586020000B5084B85B01B7D0191084632
:108D00008DF80C300BF0BDFB019982B203A8FFF780
:108D10006BFC05B05DF804FBC86A030030B41A4A66
:108D20000B46054607CA84B001AC03C49DF9040094
:108D300022709842194620D09DF905308B421CD0F4
:108D40009DF906308B4218D09DF907308B4214D024
:108D50009DF908308B4210D09DF909308B420CD020
:108D600059B19DF90B308B4207D09DF90C308B42E5
:108D700003D0002004B030BC7047012085F8621396
:108D800004B030BC704700BFE06A030090F9620392
:108D9000704700BF70B5044682B0D0F870030D462E
:108DA00008F0CEFF4FF47A7206460023A90DA80200
:108DB0000AF02CFA002302460421D4F87003009331
:108DC00008F092FF0EB102B070BD0096D4F87003A7
:108DD00033463246032108F087FF02B070BD00BF62
:108DE00001290CBFB0F85203B0F85803704700BF18
:108DF00013299ABFDE3150F821000020704700BFD0
:108E000010B5064C0021D4F86C0307F067FAD4F8CB
:108E100068030021BDE8104007F060BA1C3900204B
:108E200090F8743303B9704710B582B0D0F870432E
:108E300008F0EAF80023024600932046012108F0DA
:108E400053FF02B010BD00BFF0B583B0002405464B
:108E50002346D0F8700300942246032108F044FF13
:108E600005F55D7605F5717756F8040F20B1FEF72C
:108E70008DFD08B10134E4B2BE42F5D195F87433EA
:108E800043B1211E18BF0121132003B0BDE8F040FB
:108E900009F00EBF03B0F0BD0148FFF767BD00BF8A
:108EA0001C39002000207047002201214270C0E9D7
:108EB00001220170C2818281704700BF10B5044653
:108EC000017001B110BD0A2006F072FF606010BD94
:108ED000037810B5044643B1002301226370C4E94E
:108EE0000133E381A381227010BD406807F0FEFCCE
:108EF000F2E700BF002381608281C381704700BF19
:108F0000037870B504460D46B3B946680123637013
:108F10004FF47A720023A802A90D0AF077F90146EE
:108F2000304607F067FB98B9237800264FF0FF35ED
:108F30006670A3B9284670BD03220021012006F007
:108F4000F5FE064660600028E0D14FF0FF35F1E7FE
:108F5000E58923780026ADB26670002BEAD0606800
:108F600007F0C4FC6660284670BD00BF40787047BB
:108F700038B504468089824228BF0246154619B199
:108F8000A0680AF073FBA089E389A26815FA83F34D
:108F9000401B9BB22A44A081E381A260284638BDD1
:108FA000406820B100231A46194606F033BF7047C7
:108FB000B1DF7047B2DF704708B50F4806F074F8AC
:108FC0000E490D4800F054FB28B10D490A4800F045
:108FD0004FFB50B108BD0949074800F065FB08493F
:108FE000054800F045FB0028F4D1BDE808400449DD
:108FF000014800F059BB00BFEC3C0020EC6A0300C4
:10900000006B030070B586B00E46032300210546B1
:1090100014460093044A0496084603AB039505944E
:1090200009F004FC06B070BDF192020070B586B084
:109030000323144606460D460093104603AB044A2C
:1090400005940721CDE9036509F0F0FB06B070BD7A
:109050002194020030B50A4691B089795379039181
:1090600011790293D378094D094C019100939378BB
:10907000527801280CBF2946214604A80BF0ACF910
:1090800004A9044800F068FB11B030BD146B030064
:10909000446B0300EC3C00202DE9F043D1B00B7889
:1090A000032B04AF0D460446904668D95A08022A9D
:1090B0005ED14F4A4F49504BDFF84891012818BF05
:1090C00011460022381D00F01FFD4B4907F16800D2
:1090D00000F050FC07F1CC0611E00246414607F1D2
:1090E000680000F039FD08F1380229464846FFF7CC
:1090F000F9F8044678BB07F1680000F0A3FD0022F0
:10910000391D304600F0D0FD07F1D0000DC8D7F86A
:10911000DC10D7F8E4407B67D7F8E83097F8E0C078
:10912000F8663A67B967412207F1EC0107F1880058
:10913000C7E9204387F87CC00AF098FA07F1680075
:1091400000F0ACFD044607F1680044B100F0B2FB4A
:109150005028D0D1C1E707F1680000F073FD381D39
:1091600000F070FD204607F59A77BD46BDE8F08314
:109170000024204607F59A77BD46BDE8F083E9460E
:109180008CB08979AB786A780391697902912979F1
:1091900001911A4E1A49E878009004AD012C08BFDD
:1091A0003146284607F1CC060BF016F91249304635
:1091B00000F0E0FB29463046002200F089FC04461E
:1091C00050B90024304600F03DFD2046CD4607F55D
:1091D0009A77BD46BDE8F083304600F06BFB021E77
:1091E000EFDD92B24146304600F0B6FCEAE700BF40
:1091F000006B0300EC6A0300EC3C0020146B0300DE
:10920000446B03003C390020F0B5ADB095799378FC
:10921000344E1446527803956579029594F804C04B
:10922000CDF804C0304DE478009404AF0C4601281A
:109230000CBF3146294607F10C000BF0CDF82B4B43
:1092400007F10C0107F13C00002200F05DFC07F182
:109250003C0000F023FD40B9002407F13C0000F081
:10926000F1FC2046A437BD46F0BD07F13C0000F0FC
:1092700021FB051E08DD07F13C0000F0ABFC2918BE
:1092800007F13C0000F088FC07F13C0000F012FB05
:10929000051E08DD07F13C0000F09CFC291807F1D1
:1092A0003C0000F079FC07F13C0000F003FB0028D3
:1092B000D2DDC31D23F007036D46ADEB030D82B273
:1092C00004A907F13C00C7E9001200F045FC204664
:1092D000D7E900120323FFF76BFEB0FA80F46409AC
:1092E000AD46BAE7146B0300446B0300EC3C00206E
:1092F000F0B5B5B092F84E5092F84A30434E14464D
:1093000092F84920039594F84D50029594F84C50EA
:10931000019594F84B5000950D463D4904AF012846
:1093200018BF314607F12C000BF056F8394807F109
:109330002C0100F09DF96E4600284AD1354B07F10B
:109340002C0107F15C00012200F0DEFB07F15C005C
:1093500000F0A4FC18B9C437B546BD46F0BD502195
:1093600007F15C0000F0D4FA5022214607F15C00BE
:1093700000F00CFA0023294627487B61C7E9033334
:10938000C7E90633C7E90833BB62FFF731FD07F1D0
:109390000C012022FEF708FC3B7B03B307F10C0015
:1093A0000BF06FF8013082B2C1B207F15C007A6055
:1093B00000F0AEFA7A6807F10C0107F15C0000F0EA
:1093C000E5F907F15C0000F03DFCC437B546BD4649
:1093D000F0BD07F12C010F4800F0BEF9AEE794F89C
:1093E000491094F84D3094F84E20039194F84A10A7
:1093F000029194F84B10019194F84C10009107F1F0
:109400000C0006490AF0E8FFC8E700BF446B030000
:10941000146B0300EC3C00201C390020746B03002B
:109420002DE9F043ADB00C4604AF002103230646FE
:109430001546204607F10A027981FFF7BBFD7B89BB
:10944000E84623B9A437C546BD46BDE8F0830733D7
:10945000DB08A8EBC3039D460DF11009204607F178
:109460000A0249460323FFF7A5FD04460028E9D177
:10947000A979AB786A780391697902912979019188
:109480003D483E49ED780095012E08BF014607F1A1
:109490000C000AF0A1FF3A4B07F10C0107F13C0068
:1094A000012200F031FB07F13C0000F0F7FB00283F
:1094B000C8D0214607F13C0000F06EFB07F13C00EC
:1094C00000F0F8F9041E08DD07F13C0000F082FB13
:1094D000211807F13C0000F05FFB07F13C0000F0B1
:1094E000E9F9041E08DD07F13C0000F073FB2118C8
:1094F00007F13C0000F050FB07F13C0000F0DAF906
:109500007C8980B2A04213D0E1B207F13C0000F0A8
:10951000FFF92246494607F13C0000F037F907F110
:109520003C0000F08FFBA437C546BD46BDE8F08384
:10953000E31D6D46DB08A5EBC3039D4604A9224647
:1095400007F13C00796000F007FB79687A894846AA
:109550000AF07EF808B9AD46E1E707F13C0000F0FB
:1095600055FB7B89DB43191807F13C0000F014FB25
:10957000AD467C89C8E700BF146B0300446B030051
:10958000EC3C0020704700BF10B5044608F096FE82
:10959000204610BD38B50A4B04460D46442240F81B
:1095A0000C3B00210AF08AF80023A560237104F126
:1095B0005401012006F0DEFD2065204638BD00BFC5
:1095C0009C6B030070B504460E46006D4FF0FF31F2
:1095D00007F010F8257955B98EB1A660314604F12F
:1095E0000C0005F0BBFBB0FA80F56D092571002376
:1095F000206D1A46194606F00DFC284670BDA66877
:10960000002EF4D0EAE700BF70B505464FF0FF31F9
:10961000006D06F0EFFF2B7993B1002305F10C06E6
:109620002B71304605F0AEFC044680B10023286D56
:109630001A46194606F0EEFBB4FA84F0400970BDF4
:10964000A96805F10C0004F029FF0446EEE7A968BB
:10965000304604F023FF04460028E7D1A9683046CD
:1096600005F07CFB04460028E0D101232B71DDE7E7
:1096700030B5044695B00D46006D4FF0FF3106F051
:10968000B9FF294601AA04F10C0004F0DBFC002319
:1096900002461946206D14461A4606F0BBFBB4FA82
:1096A00084F0400915B030BD2DE9F04F83B00B7840
:1096B00000AF2F2B78600CBF4C1C0C4606460D46A5
:1096C000006D4FF0FF3106F095FF06F10C084FF0EA
:1096D000000917E0ADEB030D68468B4500F8019BD0
:1096E000EA4601DD09F0EAFF29465A46504609F0EC
:1096F000BDFF5146404603F00BFD08B1113028D1A3
:109700000134B54620462F210AF095FEA0EB050B4B
:109710000BF108036E460021044623F007035A4666
:109720000028D7D12946404603F0F2FC60B9012455
:109730007A680023106D19461A4606F06BFB204626
:109740000C37BD46BDE8F08F113014BF0024012452
:10975000EEE70024B546EBE738B504460D46006D4C
:109760004FF0FF3106F046FF294604F10C0004F0EB
:10977000C1FC002302461946206D14461A4606F025
:1097800049FBB4FA84F0400938BD00BF036970B5E5
:1097900004460D46186D4FF0FF31164606F02AFFBD
:1097A000237D4BB1002522690023106D19461A460E
:1097B00006F030FB284670BD2069A1692A46334671
:1097C0000C3003F0F3FF20EAE075ECE770B50369B5
:1097D000044682B0186D4FF0FF3106F00BFF267D76
:1097E0004EBB2069A1690C3004F01EFC05462069BF
:1097F000A1698DF8076001230DF107020C3004F018
:109800005FFB00282069A169C8BF9DF807602A4650
:1098100000F10C004FF00003D8BF4FF0FF3604F00A
:10982000D3FB22690023106D19461A4606F0F2FA9E
:10983000304602B070BD4FF0FF36F2E738B503692D
:1098400004464FF0FF31186D06F0D4FE237D4BB176
:10985000002522690023106D19461A4606F0DAFA2F
:10986000284638BD2069A1690C3004F0DFFB0546AD
:109870002069A1690C3004F0D7FB2D1AE9E700BF7D
:10988000036910B504464FF0FF31186D06F0B2FEC3
:10989000237D43B122690023106DBDE810401A46B4
:1098A000194606F0B7BA2069A1690C3004F0E4F952
:1098B000F0E700BF30B50369044683B0186D4FF080
:1098C000FF3106F097FE257D55B122690023106D0A
:1098D00019461A4606F09EFA4FF0FF3003B030BD2D
:1098E0002069A1690DF1070201230C3004F0E8FAA8
:1098F00023692A4604462946186D2B4606F08AFA43
:10990000002CCCBF9DF807004FF0FF3003B030BDF6
:1099100030B50368164A5B6883B093428DF8071030
:109920001ED1036904464FF0FF31186D06F062FE48
:10993000237D53B1002522690023106D19461A4674
:1099400006F068FA284603B030BD2069A1690C30E2
:1099500001230DF1070203F029FF20EAE075EAE791
:1099600001220DF1070198470546284603B030BD96
:109970008D97020030B4074C016100224FF47A75D4
:10998000C0E900428560C0E9062230BC027580F85B
:1099900020207047B86B0300F0B5836997B0044688
:1099A0000D46164693B1077D006919460C30002F0D
:1099B00045D003F0ADFDA06906F050F9E069002341
:1099C000A36108B106F04AF90023E361206903AA04
:1099D0000C30294604F036FB98B99DF80C30112B59
:1099E00034D02C2006F020F90146A06130B1206966
:1099F0002A460C3003F064FD002839D0002017B04F
:109A0000F0BD0230FAD1012EF8D1382006F00CF961
:109A10000146A0610028F1D0206940F203130C3008
:109A20002A4603F011FE06460028E7D12069A16905
:109A30000C300223324604F0C7FA267509E004F020
:109A40009DF9A06906F00AF9A761BFE7EEB1012E02
:109A50003AD02F2128460AF02FFD203400B1451CB2
:109A60002946204640220AF014FD012017B0F0BD1F
:109A70000123237528460AF004FD013006F0D4F8CE
:109A80002946E0610AF0E4FCE3E701233820019372
:109A900006F0CAF8019BA06101460028AED02069FB
:109AA0002A460C3003F0D0FD0028A7D1012E02D0A9
:109AB00000232375CDE72369A169024603F10C0059
:109AC000022304F081FAF3E740F20313DEE700BF5C
:109AD00030B5036983B004460D46186D01924FF00E
:109AE000FF3106F087FD019A29462046FFF754FF13
:109AF0002169002302461446086D1A46194606F0ED
:109B000089F9204603B030BD70B504460025C4E98C
:109B100006551048236182B0206084F820504FF42D
:109B20007A700E46A0604FF0FF31186D65602575A4
:109B3000019206F05FFD019A31462046FFF72CFFA7
:109B400022692B46106D29462A4606F063F9204605
:109B500002B070BDB86B0300036970B504460D46D2
:109B6000186D4FF0FF31164606F044FD237D4BB1D2
:109B7000002522690023106D19461A4606F04AF99D
:109B8000284670BD2069A1692A4633460C3004F08E
:109B900097F90546EDE700BF38B5036904460D4661
:109BA000186D4FF0FF3106F025FD237D4BB10025E8
:109BB00022690023106D19461A4606F02BF9284633
:109BC00038BD2069A1692A460C3004F0FDF9C5436F
:109BD000ED0FEDE738B5036904464FF0FF31186D1E
:109BE00006F008FD237D4BB1002522690023106D8E
:109BF00019461A4606F00EF9284638BD2069A169B3
:109C00000C3004F011FA0546EFE700BF38B50369E0
:109C100004464FF0FF31186D06F0ECFC237D4BB18C
:109C2000002522690023106D19461A4606F0F2F845
:109C3000284638BD2069A1690C3004F0F7F90546C3
:109C4000EFE700BF036970B504464FF0FF31186DB0
:109C500006F0D0FCA16981B12069257D0C30ADB141
:109C600003F056FCA06905F0F9FFE0690023A36149
:109C700008B105F0F3FF0023E36122690023106DB2
:109C8000BDE870401A46194606F0C4B804F076F8EC
:109C9000A06905F0E3FFA561EFE700BF8069003828
:109CA00018BF0120704700BF2DE9F04F95B00B6938
:109CB00006460C46186D4FF0FF3100AF904606F097
:109CC00099FC00232069337586F82030227D2B49CA
:109CD00030614FF47A70C6E90013C6E90633B0600C
:109CE000DAB342F62E652069A1690C303A1D03F003
:109CF00023FC012831D1BB892E2BF4D0AB4238D0C4
:109D0000D4F81C9048460AF0BCFB054607F10C004D
:109D10000AF0B7FB2B18093323F00703EA46ADEB33
:109D2000030D68466A1C494609F0A0FC99F800300A
:109D30002F2BEB4602D199F801301BB1104B1B8839
:109D40002BF8053007F10C0158460AF065FB424636
:109D500059463046FFF720FED54622690023106D94
:109D600019461A4606F056F830465437BD46BDE847
:109D7000F08FBB7B002BB6D0C2E700BFB86B0300EF
:109D8000AC6B03002DE9F04F85B0DDE90E4B109F61
:109D900081460D4690461E46002F63D0B8F1000F55
:109DA00003D0D8F80030B34249D0D9F800002B686E
:109DB0009E422BD04369B4FBF3F203FB1242BAB9C3
:109DC000BB4215D8B7FBF3F203FB127AA7EB0A03E9
:109DD00000930393436822461F4631465B46B847CB
:109DE00088B9039B57469B441C44002FD6D139E0C9
:109DF0000093A21AC5E90062D0F804A0AB6831460E
:109E0000D0470028CAD005B0BDE8F08F6968436923
:109E1000A142D0D8CA18A242CDD9A2EB040ABA45B1
:109E2000AB6828BFBA46611A524658461944BF1A51
:109E3000544409F01BFCD344002FAFD112E0D8F8F2
:109E40000430A342B1D8D9F8000082691A44A24272
:109E5000ADD9A2EB040ABA45D8F8081028BFBA4613
:109E6000E31AE1E7002005B0BDE8F08F2DE9F04FDF
:109E7000074687B00D4672B30368D1F800B090462C
:109E80009A69D1E901104AB3013A01F10109861832
:109E9000A9EB0009441E4FF0010A08E014F8012F55
:109EA0009DF817309A4223D1A6423B6814D01A6A13
:109EB000934509EB040320D20DF11702CDE90032DE
:109EC000CDF808A05B46002241463846FFF75AFF0E
:109ED0000028E3D009DB3B68A8689A69FF2109F0F4
:109EE000EDFB4FF0FF332B60002007B0BDE8F08F93
:109EF0006FF0330007B0BDE8F08F034B034A04480E
:109F0000122109F019FB00BFD46B0300F86D0300A8
:109F1000F46B03002DE9F04F87B0DDF840A0059207
:109F2000002B64D0D0F800908B46D9F81C105C1E32
:109F3000A1F108084445074651D3B4FBF8F00138B5
:109F400009F07CF9D04500F10200A4EB8003B3FBDB
:109F5000F8F560D8BAFBF8F0013809F06FF9861C03
:109F6000AAEB8606B6FBF8F6304609F067F9AAEBCD
:109F7000800006FB180AB54243D9D9F82020059B7A
:109F80004FF004090DF114080BE0012B45D93A6894
:109F9000126A934241D8012101FA04F42D1BB54203
:109FA00030D9AC1BB4FA84F495FAA5F1C4F11F04BE
:109FB000B1FA81F18C4228BF0C4693424FEA8401EA
:109FC00032D20091CDE90189002259463846FFF787
:109FD000D9FE059B0028D8D007B0BDE8F08FD0454A
:109FE00088BF1346BAFBF8F00CD80025B4E71199E6
:109FF0004FF0FF320A60129A1846136007B0BDE8AE
:10A00000F08F059B119A1360129B0020C3F800A0EB
:10A0100007B0BDE8F08F0026ADE7064B064A0748BB
:10A020004FF48F6109F088FA054B064A0348122164
:10A0300009F082FA6C6C0300186E0300F46B0300E5
:10A04000D46B0300F86D03002DE9F04F89B007468B
:10A05000149C129D8B4692461E46002C55D0DBF870
:10A060000030B3425CD0013340F0A180386882698F
:10A07000B5FBF2F302FB1353002B4AD1A24248D89E
:10A08000B4FBF2F302FB13430593E31A009304932A
:10A090008468139B2A463146A04700287ED1BAF136
:10A0A000000F29D0049B3BB3139B5C1E049B04EB65
:10A0B0000309139B05F10108A8EB030807E014F856
:10A0C000012F9DF81F309A4266D14C4514D03B6851
:10A0D0001A6A964208EB040363D2012202920DF140
:10A0E0001F02CDE900325146334600223846FFF7C1
:10A0F00049FE0028E3D051DB139A049B059C1146CE
:10A10000194413911D44002CA9D1002009B0BDE8C9
:10A11000F08FEB1ACBE90063DBF80030B342A2D139
:10A12000DBF80410A9429ED83A6892690A44AA4210
:10A1300099D9A2EB0508A045DBF8080028BFA04686
:10A14000691A08444246139909F090FA386813993D
:10A15000826945444144B5FBF2F302FB1353A4EB7F
:10A1600008041391002B7FF478AFDBF800104B1C30
:10A170003FF473AF0092DBE90123D0F80880C047B9
:10A1800060B9524659463846FFF770FE00283FF442
:10A1900064AF09B0BDE8F08F6FF0330009B0BDE8DF
:10A1A000F08F064B064A0748122109F0C5F9064B05
:10A1B000064A0448B72109F0BFF900BFD46B030079
:10A1C000F86D0300F46B0300986C0300086E030045
:10A1D0002DE9F04F0446D2E9003091B04FF0010B69
:10A1E0000A9300230B90069104F114080DF128093D
:10A1F0000593236859F8045B1B6A9D427BD21023A8
:10A200000DF1300A0022CDE901A300922B46414610
:10A210002046FFF7B7FD002839D1059B002B60D100
:10A220000D9B23F00043132B4FD92268D269934230
:10A230004BD84FF0FF3309A810225146099304F080
:10A24000BFFE0D9B23F00043102B28D0CDF81C90AF
:10A2500010260DF12307994607E001360122394601
:10A2600009A804F0ADFEB14517D023681B6A9D42D2
:10A2700041D20123CDE9017300962B4600224146CD
:10A280002046FFF77FFD0028E7D0DDF81C9010F195
:10A29000340F1AD011B0BDE8F08FDDF81C90099B87
:10A2A0009BB99AE80F000BF0010610AF07EB860C84
:10A2B000069F1026FE603E467D601C365CF8185CEA
:10A2C000BD6086E80F0001230593BBF1020F0FD19B
:10A2D000059B002B14BF00206FF0330011B0BDE8C8
:10A2E000F08F069A0C9BD2699B1A002B98DAECE748
:10A2F0004FF0020B7DE7034B034A0448122109F09B
:10A300001BF900BFD46B0300F86D0300F46B03006E
:10A310004368013337D02DE9F0438368013383B0BC
:10A32000044628D015460E464FF000084FF00109AC
:10A330006A462946CDE90089FFF74AFFE0B905F1F1
:10A3400024086B6A591C16D0AF6A7A1C13D0D6F851
:10A3500000C09C4513D0D6F804E0BE450FD073452D
:10A360004246294620460AD0BC4508D0FFF730FFB8
:10A370000028E6D000E0002003B0BDE8F083012013
:10A3800003B0BDE8F0830020704700BF2DE9F04125
:10A39000D1F820C00C46C9682CF00043043B01F101
:10A3A0000C069E4284B0054617461FD904F12408C6
:10A3B000102612E0424621462846FFF709FF90B9D1
:10A3C000D4F820C0A169E6602CF00043043B1431AE
:10A3D0001B2BA1614FF0100108D8BCF1000FE9DB85
:10A3E00039606FF0010004B0BDE8F0812A4663686F
:10A3F00052F8140B066AB34207F104001AD20C2675
:10A40000CDE900100296114628460022FFF7BAFC5B
:10A410000028E8D17B79BA79FD79A1690433134426
:10A42000E2683A602B441A440B44E260A36104B032
:10A43000BDE8F081024B034A0348122109F07CF881
:10A44000D46B0300F86D0300F46B0300F0B593B018
:10A4500000260D46012707A96A46CDE90067044694
:10A46000FFF7B6FE064610B121E0831C22D1109BF7
:10A4700001331CD0119B013319D010AA07A9204623
:10A48000FFF7A6FEB0B903AA07A92046FFF77EFF93
:10A490000028EAD19DF91030002B4FF00802294620
:10A4A00005A8F0DB09F0D4F80028ECD101263046ED
:10A4B00013B0F0BD0646304613B0F0BD2DE9F047AD
:10A4C000164600240122C6E90942824688461D46F6
:10A4D00006F124094A4631465046FFF779FE074601
:10A4E00068B92A4631465046FFF750FF50B1831CE9
:10A4F0001FD1736A013302D0B36A0133EAD13846FF
:10A50000BDE8F0872C7904F07004202CE9D1AB6809
:10A51000D8F80020934208D0E868D8F804108842A0
:10A5200003D08B4201D08242DBD101273846BDE8FF
:10A53000F0870746E3E700BF2DE9F04F2DED028BD2
:10A540008DB090461C46099340F622032268C8F855
:10A5500004300892D0E90123724EC8F808208246E0
:10A560008946C8F80C3000F1140B089D3146284686
:10A5700009F0B6FF2B4603440446314618460593BE
:10A5800009F06EFF0128049000F0B080022804D189
:10A59000059B1B782E2B00F0B280DDE904231344C9
:10A5A00008931F4601243146384609F099FF0744B5
:10A5B0003846314609F054FF78B1022802D0013400
:10A5C0000744F0E73B782E2BF9D17B782E2BF6D180
:10A5D000013CF5D1BB1C0893C7E7059C20780028F7
:10A5E0005FD0099B1C6098F80430222B40F08D80CE
:10A5F00008F108031A464946504608EE103AFFF79C
:10A60000E7FD00284DD1049B013B234407934246BC
:10A6100049465046FFF7BAFE002842D198F8042078
:10A6200002F07F03112B01D0222BF0D198F80730D4
:10A6300004998B42EBD1D8F8003098F8051098F8BF
:10A640000650D9F8047004330B441D44049BA3B393
:10A65000059BCDF818800135DDF81C80ED1A5C1ED5
:10A6600007E014F8012F9DF82F309A421ED144457F
:10A670001FD0DAF800301A6A974205EB040347D27C
:10A68000012202920DF12F02CDE9003259463B46DC
:10A6900000225046FFF776FB0028E2D0DDF8188054
:10A6A00009DA0DB0BDEC028BBDE8F08FDDF8188043
:10A6B000ADE7DDF8188098F8042013067FF555AF54
:10A6C000DAF8043001330CD0DAF80830013308D05E
:10A6D00018EE101A5046FFF7B9FE00281ED198F860
:10A6E000042002F07F0288F804203EE72B5D2E2B29
:10A6F0007FF453AFDDE904231344089335E7059B4A
:10A700005B782E2B7FF449AFF4E76FF01300C8E7B6
:10A71000054B064A0648122108F00EFFC1DB6FF018
:10A720000100BEE7AC6B0300D46B0300F86D0300BF
:10A73000F46B03002DE9F04F8B469DB00BF1040341
:10A7400004930BF10C03CDE9053B016B04464FF07C
:10A7500001080025D4E90D3010E05A09E66B0138F4
:10A760005F1CA063676356F822C003F01F0208FA5B
:10A7700002F212EA0C0F00F027813B469942ECD11D
:10A78000002800F0F2812268E36AD2E908621944E5
:10A79000904228BF1046B1FBF6F306FB131120636D
:10A7A000E162E06B6563D208002108F087FF63680F
:10A7B000013300F05781A368013300F05381002278
:10A7C00001230025CDE9082304F1140701222E46B8
:10A7D000D4F800C0E16ADCF82030206B591A0E442E
:10A7E000B6FBF3F503FB1565854210D26909E26BF0
:10A7F00005F01F0552F8213008FA05F51D4342F80F
:10A800002150DCF82030E16A099A206B591A0A4479
:10A81000B2FBF3F103FB112383420AD25809E16B27
:10A8200003F01F0351F8202008FA03F3134341F803
:10A83000203008AA11A92046FFF7CAFC002840F0E2
:10A840000E810C25149A24E02068129B006A834232
:10A8500080F01A820EA9CDE9002102950022394626
:10A860002046FFF78FFA002840F0F9809DF8392044
:10A870009DF83A309DF83B60149904321A449DF8D3
:10A880003830324403F070030A44102B149200F065
:10A89000EB80199B23F00043043B02F10C0098422B
:10A8A000D2D9DDE91A62701CCDE9086201D0511CD1
:10A8B0008ED1D4F80C904D46B9F1000F00F0DE8136
:10A8C000EB69DA0340F156816F69002F00F0528185
:10A8D000D4F800A0DAF81C60013F083EB742C0F08F
:10A8E000CF81B7FBF6F0013808F0A8FC0230A7EBE7
:10A8F0008002B2FBF6F6D4F830E0E16A2B690795E6
:10A9000005F12C000546DAF82020704604F1140900
:10A910008E4601469818A0EB0E0EBEFBF2F002FB2D
:10A9200010E28A420AD25709E06B02F01F0250F887
:10A93000271008FA02F20A4340F82720002E00F000
:10A940001781DAF8202006F00107C7F1020A9342C6
:10A950004FEA8A0080F098810BA90022CDE901100E
:10A96000009249462A462046FFF70CFA002876D185
:10A970000AF1FF3CD4F800A013E0BBFBF2F302FBAA
:10A9800013B38B424FF0010014D24FEA531EE16B18
:10A9900003F01F0351F82E2000FA03F3134341F88C
:10A9A0002E30D4F82CE0DAF820200B9B216BA2EBA0
:10A9B0000E0B9B446045E0DB1CAB03EB8C0C023FB1
:10A9C0005CF8443C3E44A5E72068E26A016A13440F
:10A9D000B3FBF1F201FB1233049A42F8043BD4E9D1
:10A9E0000C139942049207D10FE0A26B0133013A94
:10A9F0008B42C4E90D3208D05D0903F01F0256F8FE
:10AA0000255008FA02F22A42EFD1DDE904329342DE
:10AA10007FF49FAEDDF818B0006ADBF804308342A3
:10AA20000BF11C0204F1140180F02E810425019227
:10AA30000022204602950092FFF7A4F9002840F07A
:10AA40008B80DBF81C304FF0FF32CBE90922142059
:10AA500001331021CBE90730CBF80C1000201DB0DA
:10AA6000BDE8F08F216B75E6109B002B3FF411AF12
:10AA7000D4F800A0DAF81C6003F1FF3BA6F1080946
:10AA8000CB4570D3BBFBF9F0013808F0D7FB861C2F
:10AA9000ABEB8606B6FBF9F60F9BE16ADAF82020ED
:10AAA000D4F830E09818401AB0FBF2F102FB110222
:10AAB00072450BD24FEA521CE16B02F01F0251F8B3
:10AAC0002C0008FA02F2024341F82C20002E3FF439
:10AAD000B9AEDAF8202006F00109C9F1020A934262
:10AAE0004FEA8A0080F0D0800BA90022CDE9011046
:10AAF000009239462046FFF745F90028AFD10AF108
:10AB0000FF3CD4F800A013E0BBFBF2F302FB13B34D
:10AB100073454FF0010014D24FEA531EE16B03F06E
:10AB20001F0351F82E2000FA03F3134341F82E308F
:10AB3000E16ADAF820200B9BD4F830E0A2EB010B9D
:10AB40009B446045E0DB1CAB03EB8C0CA9F10209D4
:10AB50005CF8443C4E44A5E710F1340F3FF471AF6C
:10AB60001DB0BDE8F08F064696E76FF01B0076E754
:10AB7000079DEB699B037DD52F6A002F7AD0D4F80F
:10AB800000A0DAF81C60013F083EB7427AD3B7FB59
:10AB9000F6F0013808F052FB0230A7EB8003B3FB5C
:10ABA000F6F6D4F830E0E16A6B6A079505F12C00FF
:10ABB0000546DAF82020704604F114098E46014655
:10ABC0009818A0EB0E0EBEFBF2F002FB10E28A42D8
:10ABD0000AD25709E06B02F01F0250F8271008FA5A
:10ABE00002F20A4340F82720002E42D0DAF8202053
:10ABF00006F00107C7F1020A93424FEA8A0043D2E6
:10AC00000BA90022CDE90110009249462A462046B0
:10AC1000FFF7B8F800287FF422AF0AF1FF3CD4F820
:10AC200000A013E0BBFBF2F302FB13B38B424FF027
:10AC3000010014D24FEA531EE16B03F01F0351F8D9
:10AC40002E2000FA03F3134341F82E30D4F82CE001
:10AC5000DAF820200B9B216BA2EB0E0B9B44604586
:10AC6000E0DB1CAB03EB8C0C023F5CF8443C3E4445
:10AC7000A6E7079D2D68002D7FF422AE216B68E5C5
:10AC8000002638E600268CE7024B034A03481221CF
:10AC900008F052FCD46B0300F86D0300F46B030062
:10ACA0002DE9F04F2DED028B9BB001250446049158
:10ACB000A9464FF00008D4E90D31D4F830C00FE0B8
:10ACC0005A09E76B0139581CA163606357F8226089
:10ACD00003F01F0205FA02F2324200F02A81034615
:10ACE0009C45EDD1002900F052822368E66AD3E941
:10ACF0000802B444914228BF1146BCFBF0F300FBAC
:10AD000013C32163E362E06BC4F83480D2080021EE
:10AD100008F0D4FC63680133CDD0A3680133CAD0F6
:10AD200000220123CDE906230122002004F11407AB
:10AD300096462268E36A116A266BCB1A03EB000C75
:10AD4000BCFBF1F001FB10C0864210D94609E16B53
:10AD500000F01F0051F8263005FA00F0184341F8C2
:10AD60002600D4E90B36116ADDF81CE0CB1A7344D7
:10AD7000B3FBF1F201FB1233B3420AD25809E16B83
:10AD800003F01F0351F8202005FA03F3134341F8A1
:10AD9000203006AA0FA92046FFF71AFA002840F033
:10ADA000E9804FF00C08129A0CAE23E02168109B4A
:10ADB000096A8B4280F0F5810092CDE9016800229A
:10ADC00039462046FEF7DEFF002840F0D3809DF88C
:10ADD00031209DF832109DF833C0129B04320A4492
:10ADE0009DF8301062441A4401F07003102B129247
:10ADF00000F0C580179B23F00043043B02F10C01D7
:10AE00009942D3D9DDE9180E411CCDE9060E02D0D6
:10AE1000BEF1FF3F8DD1D4F80C804646B8F1000F4B
:10AE20003FF447AFF369DA0340F128817769002FD7
:10AE300000F02481D4F800A0DAF81C30013FA3F11F
:10AE400008084745C0F0A881B7FBF8F0013808F0C2
:10AE5000F5F90230A7EB8007B7FBF8F704F114000F
:10AE6000E16AD4F830C0DAF82020336905968346C9
:10AE700006F12C0008EE100A0E4661469818A0EB69
:10AE8000060EBEFBF2F002FB10E28A420BD2E06B30
:10AE90004FEA521C02F01F0150F82C2005FA01F174
:10AEA0000A4340F82C20002F00F0E680DAF820203A
:10AEB00007F00108C8F1020A93424FEA8A0080F0C5
:10AEC000708109A90022CDE901100092594618EEBF
:10AED000102A2046FEF756FF00284BD10AF1FF3C0E
:10AEE000D4F800A012E0BEFBF2F302FB13E38B42A6
:10AEF0004FF0010012D25E09E16B03F01F0351F81D
:10AF0000262009FA03F3134341F82630E66ADAF8FB
:10AF10002020099B216BA2EB060E9E446045E2DBDC
:10AF20001AAB03EB8C0CA8F102085CF8443C4744D4
:10AF3000A4E72168E26A096A1344B3FBF1F201FB5A
:10AF40001233049A1360D4E90C03834211D0012513
:10AF500006E0A26B0133013A8342C4E90D3208D006
:10AF6000590903F01F0257F8211005FA02F20A42AC
:10AF7000EFD100201BB0BDEC028BBDE8F08F0E9E20
:10AF8000002E3FF411AFD4F800A0DAF81C20013EE7
:10AF9000A2F1080B5E450AD3B6FBFBF0013808F0BE
:10AFA0004DF90230A6EB8003B3FBFBF31846E16AD0
:10AFB000D4F830C00D9BDAF8202008EE107A8E46C7
:10AFC000074661469818A0EB0E0EBEFBF2F002FB9E
:10AFD00010E28A420AD25609E06B02F01F0250F8D2
:10AFE000261005FA02F20A4340F82620002F00F04E
:10AFF000D580DAF8202007F00106C6F1020A934254
:10B000004FEA8A0080F0CD8009A90022CDE9011025
:10B01000009218EE101A2046FEF7B4FE0028A9D1BF
:10B020000AF1FF3CD4F800A013E0BBFBF2F302FBF3
:10B0300013B38B424FF0010014D24FEA531EE16B61
:10B0400003F01F0351F82E2009FA03F3134341F8CC
:10B050002E30D4F82CE0DAF82020099B216BA2EBEB
:10B060000E0B9B446045E0DB1AAB03EB8C0C023EFD
:10B070005CF8443C3744A5E7059EF3699B0340F127
:10B080008180376A002F7DD0D4F800A0DAF81C2028
:10B09000013FA2F1080847457CD3B7FBF8F001381F
:10B0A00008F0CCF80230A7EB8007B7FBF8F704F103
:10B0B0001400E16AD4F830C0DAF82020736A0596EB
:10B0C000834606F12C0008EE100A0E4661469818D9
:10B0D000A0EB060EBEFBF2F002FB10E28A420BD29E
:10B0E000E06B4FEA521C02F01F0150F82C2005FAC9
:10B0F00001F10A4340F82C20002F42D0DAF820203A
:10B1000007F00108C8F1020A93424FEA8A0048D2C8
:10B1100009A90022CDE901100092594618EE102A23
:10B120002046FEF72FFE00287FF424AF0AF1FF3CF3
:10B13000D4F800A012E0BEFBF2F302FB13E38B4253
:10B140004FF0010012D25E09E16B03F01F0351F8CA
:10B15000262009FA03F3134341F82630E66ADAF8A9
:10B160002020099B216BA2EB060E9E446045E2DB8A
:10B170001AAB03EB8C0CA8F102085CF8443C474482
:10B18000A5E7059E3668002E7FF44CAE91E56FF082
:10B190001B00EFE600278AE700275FE618EE107A2B
:10B1A00001E6034B034A0448122108F0C5F900BF29
:10B1B000D46B0300F86D0300F46B03002DE9F04F2E
:10B1C000044687B00F4600F1140905A92046FFF791
:10B1D00067FD064640B920680599C368984706464A
:10B1E00030B110F1340FF0D0304607B0BDE8F08F29
:10B1F000BB6A83B307F12C0A35460DF1130804F13D
:10B20000200B13E02268059B126A934247D2012269
:10B21000CDE9018200954A4659462046FEF714FFC3
:10B22000002831D1BB6A0135AB4214D922687B6A50
:10B23000126A93422DD20122CDE901820095524635
:10B2400049462046FEF79EFD0028DBD006463046E4
:10B2500007B0BDE8F08F2368A16A9A69786B08F09F
:10B2600005FAD4E908122368A06AC7E90B12FF2186
:10B270009A6908F023FA059B4FF0FF3230462262AC
:10B280007B6207B0BDE8F08F10F1340F9DD0064609
:10B29000DDE7064B064A0748122108F04DF9034B3B
:10B2A000054A04489C2108F047F900BFD46B03000D
:10B2B000F86D0300F46B0300086E03002DE9F04FF6
:10B2C0002DED028BC9B004462C2200211CA808F0E9
:10B2D000F5F94FF00043282227A80021249308F015
:10B2E000EDF923681B6A01223192002B00F0C9811D
:10B2F00000274FF00C09319B013300F0B18130AAD7
:10B3000027A92046FEF764FF0546002840F00C817F
:10B31000249B002BC0F20E816368013300F04E8144
:10B32000A368013300F04A8132AE32460CAB25A946
:10B330002046FFF7C3F80028C0F2F58000F03E81F8
:10B340000E9B259A0F982699934200F090818B428C
:10B3500000F09381DDE91D51239A26902068259302
:10B3600001320023CDE91D150B9505932392C36887
:10B370000A9198474FF0FF380546F0B115F1340FA8
:10B3800040F0D2800A9BC4F82080012B40F27981E2
:10B390000B9B012B40F275811DA92046FFF780FC15
:10B3A0000546002840F0C08020681D9901230593C0
:10B3B000C368984705460028E0D123AF0DF1500A35
:10B3C000A146102239465046CDF8508003F0F8FDD2
:10B3D00059F8202B1D9B126A934280F0158210268B
:10B3E000CDE900572A46029649462046FEF72CFE34
:10B3F00005460028C2D1249B23F00043043B102BB8
:10B4000032D904F1140B3DAF22680B9B126A9342B0
:10B4100080F0F4810122CDE90172009600225946A4
:10B420002046FEF7AFFC054600287DD101223946B3
:10B43000504603F0C5FD22681D9B126A934280F0BE
:10B44000E3810122CDE9017200962A464946204651
:10B45000FEF7FAFD0546002890D1249B23F0004317
:10B460000136043B9E42CFD322681D9B126A934251
:10B4700080F0CA8104220292CDE9006A4946002286
:10B480002046FEF7E1FD054600287FF477AF216AEC
:10B49000C4F814804A1C12D02068A36A8269009202
:10B4A0008568626AA847054600287FF467AF23686D
:10B4B000A06A9A69FF2108F001F9C4F82080206889
:10B4C00003699847054600287FF458AF249EDDF8AD
:10B4D00074B0CDF8F48026F0004604F11403043E65
:10B4E00008EE103A00F0968107460DF1400908E099
:10B4F0000137012249463DA803F062FDBE4240F2F9
:10B50000898123681B6A9B4580F078810123CDE9FE
:10B51000019318EE101A00975B4600222046FEF7B2
:10B5200031FC0028E4D00546284649B0BDEC028B2A
:10B53000BDE8F08F32AE4FF00008324627A9204612
:10B54000FEF724FFF0B1831CEDD10DF19C0CBCE89B
:10B550000F001CAE0FC6BCE80F000FC69CE807002A
:10B5600086E8070023681B6A01379F4280F08980C4
:10B57000309B01337FF4BFAE284649B0BDEC028B4F
:10B58000BDE8F08F9DF9CC309DF8CC20002BD4DAAB
:10B590006368013341D0A36801333ED034A920460B
:10B5A000FEF754FF0028BEDB35D0324627A92046DF
:10B5B00001F0C8F90028C0D00546B5E7DDE93050F4
:10B5C000DDE91D21239B1D91CDE9255001332393F6
:10B5D00008911E9209924FF0000801262068C36866
:10B5E0009847054600284FD015F1340F9CD1089B91
:10B5F0004FF0FF32012B226243D9099B012B40D926
:10B600001DA92046FFF74CFB054600288CD11D994B
:10B610004FF00108E2E79DF8CC20DDF8C8E09DF886
:10B62000CFC0CDF8F89002F07F020EF10C0033A9E4
:10B63000CDE93F198DF8CC20419001233DAA27A9DF
:10B640002046CDF80C81CDF8F4E0CDF808C1CDF856
:10B6500010C100F0F9F900283FF46FAF054663E729
:10B660000025284649B0BDEC028BBDE8F08F88422A
:10B670003FF461AF8B427FF46DAE82427FF46AAEDD
:10B6800059E76FF033054FE723AFA2464FF0FF3382
:10B690001022394607A8079303F092FC5AF8202B92
:10B6A0001D9B126A934280F0AF804FF01009CDE9E4
:10B6B00000572A46CDF8089051462046FEF7C4FCB4
:10B6C0000546002890D1249B23F00043043B102B17
:10B6D00034D904F1140B10AF2268099B126A93420B
:10B6E00080F08C80CDE90176CDF80090002259469B
:10B6F0002046FEF747FB054600287FF415AF0122E0
:10B70000394607A803F05CFC22681D9B126A93422D
:10B710007AD22A46CDE90176CDF8009051462046EE
:10B72000FEF792FC054600287FF45EAF249B23F0D1
:10B73000004309F10109043B9945CDD322681D9BC3
:10B74000126A934260D2042207A9CDE900910292C5
:10B75000514600222046FEF777FC054600287FF47C
:10B7600043AF216A4FF0FF37B942676111D02068BB
:10B77000A36A826900928568626AA8470546002824
:10B780007FF432AF2368A06A9A69FF2107F096FF21
:10B790002762206803699847054600287FF424AF94
:10B7A000249FDDF874B027F000474FF0FF3204F11A
:10B7B0001403043F08EE103A109245D081460DF173
:10B7C000F40A08E009F101090122514610A803F02A
:10B7D000F7FB4F4538D923681B6A9B450ED2CDE94C
:10B7E00001A618EE101ACDF800905B460022204604
:10B7F000FEF7C8FA0028E5D0054695E68E4B8F4A3D
:10B800008F48122107F098FE8B4B8E4A8C489C2162
:10B8100007F092FE3D9A149B9A427FF4B3AD059BCC
:10B82000002B30D12369002B3FF47EAE5C681D9A5B
:10B83000944271D099681E9881426DD084426BD039
:10B840008A4269D01B68EEE7109A079B9A427FF400
:10B85000CEAEB8F1000F40F082802369002B3FF498
:10B8600063AE5C681D9A944200F0C48099681E988B
:10B87000814200F0BF80844200F0BC808A4200F028
:10B88000B9801B68EAE7636801334ED0A3680133CF
:10B890003DAE0AAF4BD03246394610AB2046FEF7DC
:10B8A0000DFE0028FFF63FAE41D0DDE91D03109FDD
:10B8B000149731460C370C2612909DF847001897C4
:10B8C000139311AF15961796199000261B905246A8
:10B8D0000123204616971A9600F0B6F800287FF448
:10B8E00022AE0A98636898421AD00B9AA1688A42DD
:10B8F00016D0884214D0934212D00122013384F82A
:10B9000040208FD0A36801338CD02046FFF7D6FCAF
:10B91000002887D0054607E65A601E9A9A6091E78C
:10B92000DDE91D32C4E90132E7E73DAE0AAF394631
:10B9300032462046FEF7ECFC0028FFF6F4AD3FF45B
:10B9400071AF3146DDE91D60002347901A4620465D
:10B95000469600F079F800283FF464AFDAE76368B0
:10B96000013350D0A36801333DAE4DD0324610AB09
:10B9700008A92046FEF7A2FD0028FFF6D4AD43D06B
:10B98000DDE91D02109B14930C33189312900C23C5
:10B9900011A89DF84770139231461593002617930E
:10B9A0001690012314AA204619971B971A9600F0A7
:10B9B0004BF800287FF4B7AD0898636898421DD013
:10B9C000099AA1688A4219D0884217D0934215D0AB
:10B9D0000122013384F840203FF43FAFA3680133D4
:10B9E0003FF43BAF2046FFF769FC00283FF435AF3A
:10B9F000054699E55A601E9A9A6042E7DDE91D32D4
:10BA0000C4E90132E4E73DAE08A932462046FEF71C
:10BA10007FFC0028FFF687AD3FF41FAF3146DDE91C
:10BA20001D60002347901A462046469600F00CF809
:10BA300000283FF412AFDBE7D46B0300F86D03007E
:10BA4000F46B0300086E03002DE9F04F2DED028B1F
:10BA5000CE690D46D1E90141A5B0013690462A1DB7
:10BA600069608246EE61AC600892059383B11E4620
:10BA7000D8F80400D8F80C302A6A1B1A022E1A448F
:10BA800005D1D8F81C70D8F814603A44921B2A6289
:10BA9000DAF80000CDF818800023CDE90B140993E3
:10BAA000C36898470446E0B114F1340F3DD10B9BB5
:10BAB0004FF0FF32012BCAF8202034D90C9B012B08
:10BAC00031D908995046FFF7EBF8044668BBDAF81D
:10BAD0000000696801230993C36898470446002859
